:100000000C9434000C9460000C9446000C94460050
:100010000C9446000C9446000C9446000C94460048
:100020000C9446000C9446000C9446000C94460038
:100030000C9446000C9446000C9446000C94460028
:100040000C9446000C9446000C9446000C94460018
:100050000C9446000C9446000C9446000C94460008
:100060000C9446000C94460011241FBECFEFD8E03C
:10007000DEBFCDBF21E0A0E0B1E001C01D92A43001
:10008000B207E1F70E9448000C94A8010C9400000C
:10009000F89414B81AB88FEF85B987E38BB9E9E6FD
:1000A000F0E0808182608083E89A0E94940020E0E2
:1000B00040E061E080E00E94AA0078940000FECF5A
:1000C0001F920F920FB60F9211242F933F934F93CD
:1000D0005F936F937F938F939F93AF93BF93CF93D0
:1000E000EF93FF93F894C9B10E94D50060E08C2F84
:1000F00083700E94FF000E949F000E945D010E9489
:10010000E8007894FF91EF91CF91BF91AF919F91CB
:100110008F917F916F915F914F913F912F910F90B0
:100120000FBE0F901F901895ECE7F0E0808182667B
:100130008083EAE7F0E08081866880830895EAE7BB
:10014000F0E0808180648083808184FFFDCF809196
:10015000790008951092020110920101109200019D
:10016000611116C010920301211108C0880F482B9D
:100170004093BA0084EC8093BC0008952130A1F430
:10018000880F482B4093BA0085EC8093BC000895FB
:10019000613051F481E08093030180E28093B800E4
:1001A000E9EBF0E080818083089584EA8093BC00CD
:1001B000ECEBF0E080818823ECF78091B900887F38
:1001C000883019F480930201089510920201089575
:1001D00080910201982F977F943131F08E3121F078
:1001E000803311F08A3351F41092020184E9809334
:1001F000BC00ECEBF0E0808184FDFDCF0895909190
:1002000002019D7F9830A9F5880F862B8093BB0053
:1002100084E88093BC00ECEBF0E080818823ECF76D
:100220008091B900887F611114C0803241F0883319
:1002300051F0883159F482E180930201089584E1FC
:100240008093020108951092020108951092020114
:100250000895613071F4803429F0883439F01092B7
:100260000201089588E280930201089580E380935B
:10027000020108958091000181111EC084EC8093D9
:10028000BC00ECEBF0E080818823ECF78091B900B2
:10029000982F987F90930101807F803611F08037EE
:1002A00021F481E0809300010895983A11F0903B89
:1002B00019F482E0809300010895CF939091030197
:1002C000913011F590910201923111F09C31F1F5CC
:1002D0008093BB0084E88093BC00ECEBF0E080816D
:1002E0008823ECF78091B900887F883221F48CE173
:1002F000809302012BC0803321F48EE180930201B0
:1003000025C01092020122C0911120C0C82F0E9466
:100310003A01809100018230C9F4C093BB0084ECA3
:100320008093BC00ECEBF0E080818823ECF78091B7
:10033000B900887F80930101883B21F482E080939B
:10034000000104C0803C11F410920001CF91089587
:04035000F894FFCF4F
:00000001FF
