S01B000041746D656761333238505F5A756D6F56312E302E73726563DE
S11300000C944B000C9468000C9468000C946800E9
S11300100C9468000C9468000C9468000C94940090
S11300200C9468000C9468000C9468000C946800AC
S11300300C9468000C9468000C948A000C9468007A
S11300400C9468000C9468000C9468000C9468008C
S11300500C9468000C9468000C9468000C9468007C
S11300600C9468000C946800084AD73B3BCE016EA0
S113007084BCBFFDC12F3D6C74319ABD56833DDAFB
S11300803D00C77F11BED9E4BB4C3E916BAAAABE0A
S1130090000000803F0011241FBECFEFD8E0DEBF78
S11300A0CDBF11E0A0E0B1E0EAE3F7E202C00590C1
S11300B00D92AA39B107D9F722E0AAE9B1E001C04B
S11300C01D92A138B207E1F70E946A000C949B13B9
S11300D00C9400000E94C4080E94AB0885B58A7F76
S11300E085BDE1EBF0E0808187608083E1E8F0E0AA
S11300F080818E7F808378942FEF89E698E1215068
S113010080409040E1F700C00000F8940E948B0CFE
S11301107894F2CF1F920F920FB60F9211240F9082
S11301200FBE0F901F9018951F920F920FB60F924B
S113013011242F933F934F935F936F937F938F93E8
S11301409F93AF93BF93EF93FF93F8940E94430759
S11301500E94E5010E942C047894FF91EF91BF91D5
S1130160AF919F918F917F916F915F914F913F914B
S11301702F910F900FBE0F901F90189584B58F7715
S113018084BD84B58F7B84BD84B58F7D84BD84B5E7
S11301908F7E84BD84B58E7F84BD84B5826084BD2A
S11301A085B5877F85BD8BE987BD18BC85B58E7FF6
S11301B085BD85B58D7F85BD85B58B7F85BDEEE617
S11301C0F0E080818260808389E294E090938700EC
S11301D080938600109289001092880010928B0000
S11301E010928A00E0E8F0E080EA808380818E7FCC
S11301F08083808182608083E1E8F0E08081886090
S1130200808380818061808380818E7F80838081F0
S11302108D7F808380818B7F8083E0EBF0E0808121
S11302208E7F8083808182608083E1EBF0E0808137
S1130230877F80838FEE8093B3001092B400A0E791
S1130240B0E08C9182608C9380818B7F80838081ED
S11302508D7F808380818E7F80830895CF93DF9309
S1130260AC01FB01493E83E05807F0F5693E734059
S1130270D8F5C6E8D0E0288139813695279536959A
S1130280279536952795A5ECB0E20E949710929594
S113029082958F7089279F708927849F9001859FFD
S11302A0300D949F300D112430938B0020938A00DD
S11302B02881398136952795369527953695279542
S11302C00E949710929582958F7089279F70892735
S11302D08E9F90018F9F300D9E9F300D112430937F
S11302E089002093880008C010928B0010928A0025
S11302F01092890010928800DF91CF9108950E9496
S1130300B10960E08BE60E94FD0989E30E945B0A63
S113031080E00E945B0A0E94C40960E08BE60E94B0
S1130320FD0980E20E945B0A8FE60E945B0A0E943C
S1130330C40960E08BE60E94FD0983E20E945B0A27
S113034080E00E945B0A0E94E60908950E94B109B8
S113035060E08DE10E94FD0980E20E945B0A87E56E
S11303600E945B0A0E94C40960E08DE10E94FD09BD
S113037081E20E945B0A80E00E945B0A0E94C40939
S113038060E08DE10E94FD0984E20E945B0A84E63C
S11303900E945B0A0E94C40960E08DE10E94FD098D
S11303A085E20E945B0A80E00E945B0A0E94C40905
S11303B060E08DE10E94FD0986E20E945B0A80E014
S11303C00E945B0A0E94E60908958F929F92AF9261
S11303D0BF92CF92DF92EF92FF920F931F93CF932E
S11303E0DF930E94B10960E08DE10E94FD0988E875
S11303F00E945B0A0E94C40961E08DE10E94FD092C
S113040081E00E94A60AF82E81E00E94A60AE82E46
S113041081E00E94A60A182F81E00E94A60A082FF4
S113042081E00E94A60AC82F80E00E94A60AD82E66
S11304300E94E609D0E0DD29D0930402C0930302B0
S11304406F2D70E07E29072E000C880B990B0E94FB
S1130450C80E2091290230912A0240912B0250911A
S11304602C020E943A0D0E94900E6B017C01709345
S113047000026093FF01812F90E0BC01702B072ED6
S1130480000C880B990B0E94C80E20912D0230910C
S11304902E0240912F02509130020E943A0D0E9488
S11304A0900E4B015C017093020260930102B6014D
S11304B0DD0C880B990B0E94C80E2CEA35EC47EA38
S11304C058E30E9404106B017C0160931102709345
S11304D012028093130290931402B401990C880BB6
S11304E0990B0E94C80E2CEA35EC47EA58E30E94A7
S11304F004104B015C016093150270931602809303
S1130500170290931802BE01DD0F880B990B0E940D
S1130510C80E2CEA35EC47EA58E30E9404106093B5
S1130520190270931A0280931B0290931C02A70174
S11305309601C501B4010E94BA0D2DE13FE245E6E2
S113054052E40E9404106B017C0120E030E0A90118
S11305500E94190E88234CF0C092DF01D092E00172
S1130560E092E101F092E20110C020E030E044EBBF
S113057053E4C701B6010E943B0D6093DF01709301
S1130580E0018093E1019093E2018091DE018130EA
S113059009F055C08090BE019090BF01A090C001A9
S11305A0B090C101CFEDD1E0288139814A815B81CE
S11305B0C501B4010E943B0D6B017C016883798302
S11305C08A839B8320E030E0A901C501B4010E9425
S11305D0F70F8823DCF020E030E044EB53E4C7015C
S11305E0B6010E94F70F181654F520E030E044EBF2
S11305F053E4C701B6010E943A0D6093DF01709382
S1130600E0018093E1019093E20119C020E030E021
S1130610A901C701B6010E94190E882384F420E0C1
S113062030E044EB53E4C701B6010E943B0D6093F4
S1130630DF017093E0018093E1019093E201DF9187
S1130640CF911F910F91FF90EF90DF90CF90BF90CB
S1130650AF909F908F9008954F925F926F927F9288
S1130660AF92BF92CF92DF92EF92FF920F931F93BC
S1130670CF93DF93CDB7DEB728970FB6F894DEBFDC
S11306800FBECDBF2B013C012D833E834F83588782
S1130690C801B7014092A2015092A3016092A40143
S11306A07092A5012093A6013093A7014093A8015D
S11306B05093A901E092AA01F092AB010093AC011E
S11306C01093AD01A60195010E941E0E69837A83E1
S11306D08B839C83A60195016D817E818F81988592
S11306E00E940410A30192010E943B0D29813A81CA
S11306F04B815C810E943B0D6093AE017093AF010E
S11307008093B0019093B10177FA709477F8709464
S113071029813A814B815C81CA01B9010E943B0D58
S11307209B01AC01C301B2010E943A0D6093B20176
S11307307093B3018093B4019093B50129813A81F8
S11307404B815C812093B6013093B7014093B8018B
S11307505093B9011092CA011092CB011092CC01AE
S11307601092CD011092CE011092CF011092D001BF
S11307701092D1011092D2011092D3011092D4019F
S11307801092D5011092C2011092C3011092C401BB
S11307901092C5011092C6011092C7011092C801AF
S11307A01092C90180E090E0A6E9B3E48093BA0115
S11307B09093BB01A093BC01B093BD011092BE0104
S11307C01092BF011092C0011092C10180E090E02C
S11307D0A4E3B3E48093D6019093D701A093D80106
S11307E0B093D9010EED11E0D8011C92EEE9F1E0CD
S11307F0A082B182C282D3820E94E5012091DF01EE
S11308003091E0014091E1015091E20160E070E03B
S113081084E393E40E943A0D6093BE017093BF0198
S11308208093C0019093C10181E0D8018C932896F4
S11308300FB6F894DEBF0FBECDBFDF91CF911F91ED
S11308400F91FF90EF90DF90CF90BF90AF907F908B
S11308506F905F904F9008954F925F926F927F9246
S11308608F929F92AF92BF92CF92DF92EF92FF92BC
S1130870CF93DF93CEE9D1E02091DF013091E00105
S11308804091E1015091E20168AD79AD8AAD9BAD33
S11308900E943A0D6B017C016CA77DA78EA79FA7D0
S11308A0288939894A895B890E94041028A539A5B9
S11308B04AA55BA50E943B0D4B015C0128A939A9FF
S11308C04AA95BA96C897D898E899F890E9404103D
S11308D09B01AC01C501B4010E943B0D4B015C01BD
S11308E02CA93DA94EA95FA9688D798D8A8D9B8D10
S11308F00E9404109B01AC01C501B4010E943B0D90
S11309002B013C016CA37DA38EA39FA38C8C9D8C97
S1130910AE8CBF8CA50194010E94F70F18164CF4FD
S11309208092C2019092C301A092C401B092C50109
S113093014C0B7FAB094B7F8B094A5019401C301F8
S1130940B2010E94190E882344F48092C20190924D
S1130950C301A092C401B092C50120E030E0A90116
S1130960C701B6010E94F70F88236CF05F9A28989C
S11309706091C2017091C3018091C4019091C5013D
S11309800E94900E1BC020E030E0A901C701B6010F
S11309900E94190E882384F4289A5F988091C201DA
S11309A09091C301A091C401B091C501BC01CD01D6
S11309B090580E94900E02C060E070E0CB01805B12
S11309C09F4FBC010E942E01EEE9F1E084A195A1A4
S11309D0A6A1B7A180A791A7A2A7B3A780A991A90F
S11309E0A2A9B3A984AB95ABA6ABB7AB84A595A5D7
S11309F0A6A5B7A580AB91ABA2ABB3ABDF91CF916A
S1130A00FF90EF90DF90CF90BF90AF909F908F902A
S1130A107F906F905F904F9008952F923F924F92E6
S1130A205F926F927F929F92AF92BF92CF92DF922A
S1130A30EF92FF920F931F93CF93DF93C1E8D0E01F
S1130A4088818E7F888328985F9A68EC70E088ECB0
S1130A5090E00E942E010E94E5016091FF017091D7
S1130A600002072E000C880B990B0E94C80E60939D
S1130A703102709332028093330290933402609374
S1130A803502709336028093370290933802609156
S1130A90010270910202072E000C880B990B0E9430
S1130AA0C80E6093390270933A0280933B0290938C
S1130AB03C0260933D0270933E0280933F02909308
S1130AC040028881816088830F2EF4E69F2EF02DEA
S1130AD00F2EFFEFCF2EF1E0DF2EF02D05E312E015
S1130AE00F2EF1E3AF2EF2E0BF2EF02D0F2EF1E02A
S1130AF0EF2EF2E0FF2EF02DCDE3D2E00F2EF9E33E
S1130B002F2EF2E03F2EF02D0E94E501F6016081C8
S1130B107181072E000C880B990B0E94C80E2B01C3
S1130B203C01F80120813181428153810E94F70FF9
S1130B30882334F0F801408251826282738210C0AB
S1130B40F5012081318142815381C301B2010E94A8
S1130B50190E88232CF4F50140825182628273823B
S1130B60F70160817181072E000C880B990B0E949C
S1130B70C80E2B013C01288139814A815B810E9486
S1130B80F70F88232CF0488259826A827B8210C036
S1130B90F1012081318142815381C301B2010E945C
S1130BA0190E88232CF4F1014082518262827382EF
S1130BB0FFEF21EE84E0F15020408040E1F700C0D7
S1130BC000009A949110A0CF20913102309132020A
S1130BD04091330250913402609135027091360293
S1130BE080913702909138020E943B0D20E030E062
S1130BF040E05FE30E9404106093290270932A028C
S1130C0080932B0290932C022091390230913A0266
S1130C1040913B0250913C0260913D0270913E0232
S1130C2080913F02909140020E943B0D20E030E011
S1130C3040E05FE30E94041060932D0270932E0243
S1130C4080932F0290933002E1E8F0E080818E7F60
S1130C50808360E070E080E090E00E942E0128989C
S1130C605F98DF91CF911F910F91FF90EF90DF90EC
S1130C70CF90BF90AF909F907F906F905F904F9078
S1130C803F902F9008952F923F924F925F926F92D0
S1130C907F928F929F92AF92BF92CF92DF92EF9208
S1130CA0FF920F931F93CF93DF93482E882309F469
S1130CB0C4C0812C312CE3E7F2E0512C65E672E0EC
S1130CC047E652E029E632E08BE692E0CDE6D2E058
S1130CD0992493940F2EF9E5AF2EF2E0BF2EF02D58
S1130CE05A9A118210821AB110631AB917B11D6091
S1130CF017B9239A1BB110631BB918B11D6018B939
S1130D002B9A15E31A95F1F700001AB11F7C1AB952
S1130D1017B1127F17B923981BB11F7C1BB918B1E7
S1130D20127F18B92B98652C752CC52CD52CE52C65
S1130D30F52C2CC0DB010D931C93F92C339906C0C0
S1130D40E11004C0DA010D931C93E92C1B9906C031
S1130D50D11004C0D9010D931C93D92C309906C02D
S1130D60C11004C0DC010D931C93C92C329905C039
S1130D70711003C019830883792C4D9907C0611041
S1130D8005C0AFE6B2E00D931C93692CFF2009F473
S1130D905EC0EE2009F453C0DD2009F450C0CC201D
S1130DA009F44DC0772009F44AC0662009F447C00D
S1130DB05A98B1E03B1222C00DE412E0D8015896D3
S1130DC0ED90FC9059971C96CD90DC901D97EC14F7
S1130DD0FD0428F41D96FC92EE921C9709C0D801DC
S1130DE0CD90DC90EC14FD0418F0D801ED92FC9247
S1130DF00E5F1F4FA016B10609F711C00DE412E0F3
S1130E00D8015896ED90FC9059971D96FC92EE925D
S1130E101C97ED92FD928D01AA16BB0689F7BFEFD0
S1130E2013ECA9E0B1501040A040E1F700C000006D
S1130E30839433243394481053CF5A9811C00081BB
S1130E4011810F5F1F4F1183008329B077CF008179
S1130E5011810F5F1F4F118300834C996FCF6ACFAD
S1130E60DF91CF911F910F91FF90EF90DF90CF9082
S1130E70BF90AF909F908F907F906F905F904F90B6
S1130E803F902F9008954F925F926F927F928F922E
S1130E909F92AF92BF92CF92DF92EF92FF920F9305
S1130EA01F93CF93DF9300D000D000D0CDB7DEB72F
S1130EB05A9A10927402109273028AB180638AB9AA
S1130EC087B18D6087B9239A8BB180638BB988B160
S1130ED08D6088B92B9A85E38A95F1F700008AB171
S1130EE08F7C8AB987B1827F87B923988BB18F7C35
S1130EF08BB988B1827F88B92B98912CA12CB12C05
S1130F00C12CD12CE12CE3E7F2E001E412E0FF2450
S1130F10F39463E472E045E452E027E432E00F2EF8
S1130F20F9E46F2EF2E07F2EF02D0F2EFBE44F2E0E
S1130F30F2E05F2EF02D2CC0D8018D939C93EF2C02
S1130F40339906C0D11004C0DB018D939C93DF2C30
S1130F501B9906C0C11004C0DA018D939C93CF2C59
S1130F60309906C0B11004C0D9018D939C93BF2C55
S1130F70329906C0A11004C0D3018D939C93AF2C69
S1130F804D9906C0911004C0D2018D939C939F2C5F
S1130F90EE2009F4BAC0DD2009F4BFC0CC2009F466
S1130FA0BCC0BB2009F4B9C0AA2009F4B6C099207A
S1130FB009F4B3C05A98E1E4F2E0FE83ED834DE412
S1130FC052E0DF01808D918D20813181281739070E
S1130FD018F40196918380831C968D919C911D97A2
S1130FE02D913C9111978217930718F401978D93D3
S1130FF09C933296E417F50721F710927D02109224
S11310007E0210927F021092800200E010E0C12C58
S1131010D12C7601412C512C3201AD81BE815896E0
S1131020AD90BC9059971C966D917C911D976A194F
S11310307B0980E090E00E94C60E9B01AC0160E059
S113104070E08AE794E40E941E0E69837A838B839E
S11310509C83ED81FE81608171816A197B0980E046
S113106090E00E94C60E4B015C019B01AC016981BA
S11310707A818B819C810E9404100E94900EAD8124
S1131080BE816D937D93BE83AD83069F9001079FC0
S1131090300D169F300D1124420E531E611C711C1D
S11310A0C60ED71EE11CF11C0F5F1F4F0630110541
S11310B009F0B3CF89819A81AB81BC818093750299
S11310C090937602A0937702B0937802809279028B
S11310D090927A02A0927B02B0927C02C0927D022E
S11310E0D0927E02E0927F02F0928002A8EEB3E0FA
S11310F0A30192010E94A610A70196010E947510F7
S113110030937202209371020FC080819181019605
S1131110918380834C9914CF0FCF80819181019664
S11311209183808389B00CCF26960FB6F894DEBFE6
S11311300FBECDBFDF91CF911F910F91FF90EF9024
S1131140DF90CF90BF90AF909F908F907F906F90E3
S11311505F904F9008952D9A11C02D982FEF81EE36
S113116094E0215080409040E1F700C000002D9AA7
S11311708FE39CE90197F1F700C000000E943E0C48
S1131180833759F72D980895AF92BF92CF92DF928B
S1131190EF92FF920F931F931AB814B817B88EECFE
S11311A08AB987E284B987B1827F87B92C9A88B1DA
S11311B0827F88B98BB18F7C8BB9E1E4F2E08DE456
S11311C092E011921192178A168A1386128613A23C
S11311D012A2E817F907A9F7109274021092730289
S11311E01092290210922A0210922B0210922C02C1
S11311F010922D0210922E0210922F0210923002A1
S11312001092310210923202109233021092340280
S11312101092350210923602109237021092380260
S11312201092390210923A0210923B0210923C0240
S113123010923D0210923E0210923F021092400220
S11312401092720210927102F8946894AA24A3F87E
S1131250C12CEE24E39400E011E020E041E061E0E1
S113126080E895E20E94520B20E040E061E080E0DB
S11312700E9486090E947F010E94A6010E94BE006E
S11312802D985A98E1E8F0E080818E7F808385B5BF
S11312908A7F85BDE1EBF0E08081887F8083289898
S11312A05F9860E070E080E090E00E942E010E9470
S11312B0AB0882E30E9443060E94AB080E940D051E
S11312C00E94AB080F2EF2E8AF2EF8EABF2EFBE720
S11312D0CF2EFCE3DF2EF02D1CEEE12E11E5F12ED6
S11312E008EB1DE320E030E048EA50E460E070E001
S11312F088EC91E40E942C0378941F910F91FF9045
S1131300EF90DF90CF90BF90AF90089510929C0122
S113131010929B0110929A01611116C010929D01C6
S1131320211108C0880F482B4093BA0084EC8093A5
S1131330BC0008952130A1F4880F482B4093BA00D3
S113134085EC8093BC000895613051F481E0809372
S11313509D0188E48093B800E9EBF0E0808180830C
S1131360089584EA8093BC00ECEBF0E0808188234C
S1131370ECF78091B900887F883019F480939C0140
S1131380089510929C01089580919C01823151F03E
S1131390982F977F943131F08E3121F0803311F002
S11313A08A3399F484EA8093BC00ECEBF0E080810A
S11313B08823ECF78091B900887F803121F48AE09A
S11313C080939C01089510929C01089580919C0142
S11313D0982F977F943131F08E3121F0803311F0C2
S11313E08A3351F410929C0184E98093BC00ECEBA5
S11313F0F0E0808184FDFDCF089590919C019D7F54
S11314009830A9F5880F862B8093BB0084E88093DD
S1131410BC00ECEBF0E080818823ECF78091B9000C
S1131420887F611114C0803241F0883351F08831D3
S113143059F482E180939C01089584E180939C0196
S1131440089510929C01089510929C0108956130B2
S113145071F4803429F0883439F010929C01089595
S113146088E280939C01089580E380939C01089511
S113147080919A0181111EC084EC8093BC00ECEB36
S1131480F0E080818823ECF78091B900982F987F51
S113149090939B01807F803611F0803721F481E0A6
S11314A080939A010895983A11F0903B19F482E0E0
S11314B080939A010895CF9390919D01913011F5F5
S11314C090919C01923111F09C31F1F58093BB0015
S11314D084E88093BC00ECEBF0E080818823ECF797
S11314E08091B900887F883221F48CE180939C013B
S11314F02BC0803321F48EE180939C0125C010928F
S11315009C0122C0911120C0C82F0E94380A8091EA
S11315109A018230C9F4C093BB0084EC8093BC0070
S1131520ECEBF0E080818823ECF78091B900887FB0
S113153080939B01883B21F482E080939A0104C04C
S1131540803C11F410929A01CF910895CF93DF93C8
S1131550C0919D01C13009F069C090919C019832FD
S113156011F0923379F5813031F484EC8093BC002E
S1131570ECEBF0E006C08111FBCF84E88093BC0063
S1131580F7CF80818823ECF78091B900887F80357C
S113159029F0883549F0883389F40CC082E38093BC
S11315A09C01C091BB007AC08AE380939C01C091E6
S11315B0BB0074C010929C01C0E070C010929C01EA
S11315C0C0E06CC090919B019F3F09F064C020E48F
S11315D0829FC001112484688093BC00ECEBF0E08E
S11315E080818823ECF78091B900982F987E9038F9
S11315F031F48FEF80939B01C091BB004FC09838AA
S113160029F410929B01C091BB0048C0887F803AA6
S113161021F080939B01C0E041C010929B01ECEB50
S1131620F0E0808180688083C0E038C0C11135C09B
S1131630D82F0E94380A80919A01813079F520E4EC
S1131640D29FC001112484688093BC00ECEBF0E0CD
S113165080818823ECF78091B900982F987F90932C
S11316609B01887E803831F481E080939A01C09197
S1131670BB0014C0883829F410929A01C091BB00B1
S11316800DC0903A59F410929A01ECEBF0E080818D
S11316908068808303C0C0E001C0C0E08C2FDF916C
S11316A0CF910895AF92CF92EF920F931F93CF9360
S11316B0DF93D62F142FC22F0A2D9C0140E050E057
S11316C060E472E48FE090E00E9475108FEF820F67
S11316D08093C400DA01C9010197A109B109892FD6
S11316E09A2FAB2FBB278093C500E1ECF0E020815B
S11316F030E1D39FC0011124D22FD82BD083808115
S1131700110F110F110F182B1083808190E8C99FBE
S1131710E0011124C82BC08331E0E31206C0E2ECDF
S1131720F0E08081877F808308C082E0E81205C0F2
S1131730E2ECF0E0808188608083CC2021F091E0AD
S1131740C91651F012C0E2ECF0E080818F778083FB
S113175080818F7B808311C0E2ECF0E080818F7701
S1131760808380818064808308C0E2ECF0E0808123
S11317708F77808380818F7B8083E2ECF0E08081AF
S11317808F7D808380818F7E80830630B9F018F44A
S1131790053031F03DC00730F9F0083059F138C058
S11317A0E1ECF0E080818B7F8083E2ECF0E08081EB
S11317B08B7F808380818D7F808337C0E1ECF0E074
S11317C080818B7F8083E2ECF0E080818B7F80835B
S11317D080818260808329C0E1ECF0E080818B7F8E
S11317E08083E2ECF0E080818460808380818D7F5F
S11317F080831BC0E1ECF0E080818B7F8083E2EC8E
S1131800F0E08081846080838081826080830DC069
S1131810E1ECF0E080818B7F8083E2ECF0E080817A
S113182084608083808182608083DF91CF911F9167
S11318300F91EF90CF90AF900895E0ECF0E090819D
S113184095FFFDCF8093C60008950F931F93CF9308
S1131850DF93662371F0EC016150062F10E00F5FF7
S11318601F4F080F191F89910E941D0CC017D10723
S1131870D1F7DF91CF911F910F910895E0ECF0E043
S113188080818823ECF78091C60008958F929F92FF
S1131890AF92BF92CF92DF92EF92FF92CF93DF93FA
S11318A0C82FD92F4A015B01CB01BA010E94030F53
S11318B06B017C019B01AC01C501B4010E943A0D8E
S11318C020E030E44CE156E40E9404100E94900EA3
S11318D07F936F93C701B6010E94900E7F936F931D
S11318E088E091E09F938F93DF93CF930E94B11090
S11318F08DB79EB708960FB6F8949EBF0FBE8DBFE6
S1131900DF91CF91FF90EF90DF90CF90BF90AF9099
S11319109F908F9008950F931F93CF93DF93CDB72C
S1131920DEB767970FB6F894DEBF0FBECDBF80E277
S113193090E09A83898387E0E5E4F1E0DE01139681
S113194001900D928A95E1F7CE010396FC01019076
S11319500020E9F73197BF01681B790B0E94250C21
S11319604091E7015091E8016091E9017091EA0129
S11319708E010F5F1F4FC8010E94460CF8010190B1
S11319800020E9F73197BF01601B710BC8010E9469
S1131990250C88E0ECE4F1E0DE011A9601900D924A
S11319A08A95E1F7CE010A96FC0101900020E9F73F
S11319B03197BF01681B790B0E94250C4091E3010C
S11319C05091E4016091E5017091E601C8010E9423
S11319D0460CF80101900020E9F73197BF01601B24
S11319E0710BC8010E94250C86E0E4E5F1E0DE01FC
S11319F0529601900D928A95E1F7CE014296FC0130
S1131A0001900020E9F73197BF01681B790B0E9410
S1131A10250C4091DF015091E0016091E10170914A
S1131A20E201C8010E94460CF80101900020E9F788
S1131A303197BF01601B710BC8010E94250C8AE01D
S1131A409DE09A8389831B82F80101900020E9F7C5
S1131A503197BF01601B710BC8010E94250C67966A
S1131A600FB6F894DEBF0FBECDBFDF91CF911F91AB
S1131A700F9108955058BB27AA270E94520D0C9429
S1131A80A50F0E94970F38F00E949E0F20F039F4A2
S1131A909F3F19F426F40C946D0F0EF4E095E7FBC8
S1131AA00C943E0FE92F0E94B60F58F3BA17620741
S1131AB073078407950720F079F4A6F50C94F00FCA
S1131AC00EF4E0950B2EBA2FA02D0B01B901900155
S1131AD00C01CA01A0011124FF27591B99F0593F99
S1131AE050F4503E68F11A16F040A22F232F342FE1
S1131AF04427585FF3CF469537952795A795F0402F
S1131B005395C9F77EF41F16BA0B620B730B840B43
S1131B10BAF09150A1F0FF0FBB1F661F771F881FFB
S1131B20C2F70EC0BA0F621F731F841F48F4879553
S1131B3077956795B795F7959E3F08F0B0CF939545
S1131B40880F08F09927EE0F9795879508950E94BE
S1131B50970F60F080E891E009F49EEF0E949E0FD9
S1131B6028F040E851E071F45EEF0CC00C946D0F66
S1131B700C94F00FE92FE0780E94B60F40F3092E81
S1131B80052AB1F3261737074807590738F00E2EF0
S1131B9007F8E02569F0E025E0640AC0EF6307F880
S1131BA0009407FADB01B9019D01DC01CA01AD0112
S1131BB0EF930E94350E0E94A50F0E94EA0D5F91DB
S1131BC0552339F02BED3FE049E450FD49EC0C94EA
S1131BD03B0D0895DF93DD27B92FBF7740E85FE31E
S1131BE01616170648075B0718F4D92F0E94FC0F36
S1131BF09F938F937F936F930E947110E8E6F0E0B8
S1131C000E94700F0E94A50F2F913F914F915F91F9
S1131C100E941710DD2351F09058A2EA2AED3FE00C
S1131C2049EC5FE3D0785D270E94520DDF910C945C
S1131C30A50F0E941A0F08F481E008950E94320E45
S1131C400C94A50F0E949E0F58F00E94970F40F02D
S1131C5029F45F3F29F00C943E0F51110C94F10FBD
S1131C600C946D0F0E94B60F68F39923B1F35523BA
S1131C7091F3951B550BBB27AA276217730784079B
S1131C8038F09F5F5F4F220F331F441FAA1FA9F331
S1131C9035D00E2E3AF0E0E832D091505040E6951F
S1131CA0001CCAF72BD0FE2F29D0660F771F881F80
S1131CB0BB1F261737074807AB07B0E809F0BB0B73
S1131CC0802DBF01FF2793585F4F3AF09E3F510587
S1131CD078F00C943E0F0C94F10F5F3FE4F3983EC0
S1131CE0D4F3869577956795B795F7959F5FC9F770
S1131CF0880F911D9695879597F90895E1E0660FF1
S1131D00771F881FBB1F621773078407BA0720F069
S1131D10621B730B840BBA0BEE1F88F7E0950895D2
S1131D200E94970E6894B1110C94F10F08950E94CB
S1131D30BE0F88F09F5798F0B92F9927B751B0F08C
S1131D40E1F0660F771F881F991F1AF0BA95C9F73B
S1131D5014C0B13091F00E94F00FB1E008950C94DA
S1131D60F00F672F782F8827B85F39F0B93FCCF38D
S1131D70869577956795B395D9F73EF490958095B8
S1131D80709561957F4F8F4F9F4F0895E89409C0D8
S1131D9097FB3EF490958095709561957F4F8F4F9A
S1131DA09F4F9923A9F0F92F96E9BB279395F695B0
S1131DB0879577956795B795F111F8CFFAF4BB0F2E
S1131DC011F460FF1BC06F5F7F4F8F4F9F4F16C092
S1131DD0882311F096E911C0772321F09EE8872F1C
S1131DE0762F05C0662371F096E8862F70E060E0D8
S1131DF02AF09A95660F771F881FDAF7880F969551
S1131E00879597F908950E94D80F90F09F3748F46A
S1131E10911116F00C94F10F60E070E080E89FEBF4
S1131E20089526F41B16611D711D811D0C94440F29
S1131E300C945F0F990F0008550FAA0BE0E8FEEF12
S1131E4016161706E807F907C0F012161306E4077A
S1131E50F50798F0621B730B840B950B39F40A2673
S1131E6061F0232B242B252B21F408950A2609F451
S1131E70A140A6958FEF811D811D089597F99F6755
S1131E8080E870E060E00895882371F4772321F0FE
S1131E909850872B762F07C0662311F499270DC01D
S1131EA09051862B70E060E02AF09A95660F771FB8
S1131EB0881FDAF7880F9695879597F908959F3FBD
S1131EC031F0915020F4879577956795B795880FF1
S1131ED0911D9695879597F908959FEF80EC089545
S1131EE0DF93CF931F930F93FF92EF92DF927B01C7
S1131EF08C01689406C0DA2EEF010E941710FE01CF
S1131F00E894A5912591359145915591A6F3EF015A
S1131F100E94520DFE019701A801DA9469F7DF903F
S1131F20EF90FF900F911F91CF91DF9108950024BE
S1131F300A941616170618060906089500240A942A
S1131F4012161306140605060895092E0394000CB0
S1131F5011F4882352F0BB0F40F4BF2B11F460FF3F
S1131F6004C06F5F7F4F8F4F9F4F089557FD905868
S1131F70440F551F59F05F3F71F04795880F97FB49
S1131F80991F61F09F3F79F0879508951216130603
S1131F901406551FF2CF4695F1DF08C01616170632
S1131FA01806991FF1CF8695710561050894089567
S1131FB00E94BE0FA0F0BEE7B91788F4BB279F3874
S1131FC060F41616B11D672F782F8827985FF7CF16
S1131FD0869577956795B11D93959639C8F30895BD
S1131FE0E894BB2766277727CB0197F908950E94C9
S1131FF01A0F08F48FEF08959B01AC0160E070E0C4
S113200080E89FE30C941E0E0E9417100C94A50FF9
S11320100E94970F38F00E949E0F20F0952311F034
S11320200C943E0F0C946D0F11240C94F10F0E942C
S1132030B60F70F3959FC1F3950F50E0551F629F43
S1132040F001729FBB27F00DB11D639FAA27F00D0D
S1132050B11DAA1F649F6627B00DA11D661F829F34
S11320602227B00DA11D621F739FB00DA11D621F19
S1132070839FA00D611D221F749F3327A00D611D36
S1132080231F849F600D211D822F762F6A2F112418
S11320909F5750409AF0F1F088234AF0EE0FFF1F4B
S11320A0BB1F661F771F881F91505040A9F79E3FA2
S11320B0510580F00C943E0F0C94F10F5F3FE4F354
S11320C0983ED4F3869577956795B795F795E795F8
S11320D09F5FC1F7FE2B880F911D9695879597F901
S11320E008959B01AC010C940410A1E21A2EAA1BC2
S11320F0BB1BFD010DC0AA1FBB1FEE1FFF1FA217B4
S1132100B307E407F50720F0A21BB30BE40BF50BB0
S1132110661F771F881F991F1A9469F76095709539
S1132120809590959B01AC01BD01CF010895A29FBC
S1132130B001B39FC001A39F700D811D1124911D97
S1132140B29F700D811D1124911D08950E94971056
S1132150A59F900DB49F900DA49F800D911D1124F7
S11321600895AEE0B0E0E7EBF0E10C9472130D8952
S11321701E8986E08C831A8309838FEF9FE79E83F1
S11321808D83AE01475E5F4F6F89788DCE010196D6
S11321900E94D310EF81F885E00FF11F10822E9674
S11321A0E4E00C948E13ABE0B0E0E9EDF0E10C94C4
S11321B064136C017B018A01FC01178216828381FE
S11321C081FFCCC1CE0101963C01F6019381F70158
S11321D093FD859193FF81917F01882309F4BAC10E
S11321E0853239F493FD859193FF81917F01853286
S11321F029F4B60190E00E94CA12E7CF912C212C59
S1132200312CFFE1F315D8F08B3279F038F48032B9
S113221079F08332A1F4232D20611DC08D3261F049
S1132220803369F4232D216016C0832D8260382EFB
S1132230E32DE4603E2E2AC0F32DF8601DC037FC68
S11322402DC020ED280F2A3040F08E32B9F436FC30
S113225081C1232D2064322E19C036FE06C08AE0C7
S1132260989E200D1124922E11C0EAE02E9E200D7E
S11322701124222EF32DF0623F2E08C08C3621F457
S1132280832D8068382E02C0883641F4F70193FD0F
S1132290859193FF81917F018111B3CF982F9F7D09
S11322A09554933028F40C5F1F4F9FE399830DC01E
S11322B0833631F0833771F0833509F059C021C07A
S11322C0F801808189830E5F1F4F88248394912CA9
S11322D0530113C02801F2E04F0E511CF801A080F5
S11322E0B18036FE03C0692D70E002C06FEF7FEF4E
S11322F0C5010E94BF124C018201F32DFF773F2ECE
S113230016C0280122E0420E511CF801A080B180C1
S113231036FE03C0692D70E002C06FEF7FEFC50188
S11323200E94B4124C01F32DF0683F2E820133FC5D
S11323301BC0822D90E088169906B0F4B60180E2A5
S113234090E00E94CA122A94F4CFF50137FC8591DB
S113235037FE81915F01B60190E00E94CA122110FC
S11323602A9421E0821A91088114910471F7E8C03B
S1132370843611F0893641F5F80137FE07C06081D3
S11323807181828193810C5F1F4F08C060817181CC
S1132390072E000C880B990B0E5F1F4FF32DFF7651
S11323A03F2E97FF09C090958095709561957F4F5A
S11323B08F4F9F4FF0683F2E2AE030E0A3010E9428
S11323C00613882E861845C0853731F4232D2F7EB9
S11323D0B22E2AE030E025C0932D997FB92E8F3696
S11323E0C1F018F4883579F0B5C0803719F0883712
S11323F021F0B0C0E92FE061BE2EB4FE0DC0FB2D6C
S1132400F460BF2E09C034FE0AC0292F2660B22E04
S113241006C028E030E005C020E130E002C020E141
S113242032E0F801B7FE07C0608171818281938137
S11324300C5F1F4F06C06081718180E090E00E5FE9
S11324401F4FA3010E940613882E8618FB2DFF77C9
S11324503F2E36FE0DC0232D2E7FA22E891458F454
S113246034FE0BC032FC09C0832D8E7EA82E05C01D
S1132470B82CA32C03C0B82C01C0B92CA4FE0FC0E7
S1132480FE01E80DF11D8081803321F49A2D997E9F
S1132490A92E09C0A2FE06C0B394B39404C08A2D29
S11324A0867809F0B394A3FC11C0A0FE06C0B21450
S11324B088F4280C922C9B180EC0B21460F4B60158
S11324C080E290E00E94CA12B394F7CFB21418F4D9
S11324D02B1802C0982C212CA4FE10C0B60180E356
S11324E090E00E94CA12A2FE17C0A1FC03C088E7B4
S11324F090E002C088E590E0B6010CC08A2D867891
S113250059F0A1FE02C08BE201C080E2A7FC8DE27B
S1132510B60190E00E94CA12891438F4B60180E32F
S113252090E00E94CA129A94F7CF8A94F301E80DBE
S1132530F11D8081B60190E00E94CA128110F5CF8E
S1132540222009F442CEB60180E290E00E94CA1231
S11325502A94F6CFF6018681978102C08FEF9FEF10
S11325602B96E2E10C948013FC01059061507040BD
S11325700110D8F7809590958E0F9F1F0895FC0148
S11325806150704001900110D8F7809590958E0F9E
S11325909F1F08950F931F93CF93DF93FB01238114
S11325A021FD03C08FEF9FEF2CC022FF16C0468190
S11325B05781248135814217530744F4A081B181A6
S11325C09D012F5F3F4F318320838C932681378178
S11325D02F5F3F4F3783268314C08B01EC01FB012F
S11325E00084F185E02D0995892BE1F6D801169632
S11325F08D919C911797019617969C938E9316979D
S1132600CE01DF91CF911F910F910895FA01AA276E
S1132610283051F1203181F1E8946F936E7F6E5F21
S11326207F4F8F4F9F4FAF4FB1E03ED0B4E03CD0CF
S1132630670F781F891F9A1FA11D680F791F8A1FB2
S1132640911DA11D6A0F711D811D911DA11D20D019
S113265009F468943F912AE0269F11243019305DD3
S11326603193DEF6CF010895462F4770405D4193C4
S1132670B3E00FD0C9F7F6CF462F4F70405D4A3311
S113268018F0495D31FD4052419302D0A9F7EACFD9
S1132690B4E0A6959795879577956795BA95C9F708
S11326A000976105710508959B01AC010A2E0694FB
S11326B05795479537952795BA95C9F7620F731FB4
S11326C0841F951FA01D08952F923F924F925F92F1
S11326D06F927F928F929F92AF92BF92CF92DF922E
S11326E0EF92FF920F931F93CF93DF93CDB7DEB793
S11326F0CA1BDB0B0FB6F894DEBF0FBECDBF099427
S11327002A88398848885F846E847D848C849B847D
S1132710AA84B984C884DF80EE80FD800C811B818B
S1132720AA81B981CE0FD11D0FB6F894DEBF0FBEBA
S10D2730CDBFED010895F894FFCF2A
S113273A6E6F6E650025750025642E253033690099
S113274A204D782000204D792000204D696E5820B4
S113275A00204D6178582000204D696E79200020B0
S113276A4D617879200020616C70686120002062D4
S113277A657461200020726F6C6C2000207069748B
S113278A63682000207961772000434C4541524414
S113279A4154410D004C4142454C2C54696D652C01
S11327AA582C592C6D782C4D782C6D792C4D792C0C
S11327BA0D00524553455454494D45520D00444168
S10D27CA54412C54494D452C0000E5
S9030000FC
