:100000000C943E000C94A6020C94A6020C94A6023A
:100010000C94A6020C94A6020C94A6020C94110156
:100020000C94A6020C94A6020C94A6020C94A602B0
:100030000C94A6020C94A6020C9461010C94A602E6
:100040000C94A6020C94A6020C94A6020C94A60290
:100050000C94A6020C94A6020C94A6020C94A60280
:100060000C94A6020C94A6020100013100055A016D
:10007000310135800135013600058B0011241FBE8A
:10008000CFEFD8E0DEBFCDBFE8E6F0E040E017C03C
:10009000B591A59135912591059107FD0CC09591DC
:1000A0008591EF01F92FE82F05900D92A217B30764
:1000B000D9F7FE0104C01D92A217B307E1F7EB3791
:1000C000F40731F70E9468000C948D02F894FFCF7A
:1000D0000E94F601809130018823E9F0809122018D
:1000E000811112C08091140181110EC080912F01E5
:1000F000882351F060E08CE191E00E94340260E0DE
:100100008EE091E00E94340261E080E091E00E9484
:1001100034021092300180912201811105C090912A
:100120001401992309F447C090912F01992309F4F0
:1001300042C0882329F089B18F7080932D0105C0BA
:1001400089B182958F7080932D01EAE2F1E03481CC
:10015000832F8170D82FDD0FDD0FDD0F20E0C22F40
:10016000AE01506392819F7120E4929FC0011124DF
:10017000842B952B23812F73822B9183808381E0A5
:100180008327848380911401882369F0809105017D
:10019000882349F01092050188B1877F88B988B11A
:1001A0008F7E88B904C010922F010E94980210928D
:1001B00022011092140180910601882309F48ACF4C
:1001C0008091050181110BC089B18F7180932C0141
:1001D0001092050198B188E0892788B91FC0EAE22A
:1001E000F1E08FE1828389B18F7183839481292F1C
:1001F0002170122F110F110F110F00E09801206CC8
:100200003763282B3183208381E0892784831582FB
:100210000E94980298B180E1892788B9109206015E
:0202200059CFB4
:100222001F920F920FB60F9211242F933F934F9369
:100232005F936F937F938F939F93AF93BF93EF934C
:10024200FF9390913501992304F120912A01309175
:100252002B01892F859502C0369527958A95E2F75D
:1002620081E020FF80E0492F417050E090E0481784
:10027200590719F00E94700202C00E947F02809109
:1002820035018150809335010AC00E947F020E948D
:10029200A0028BE18093350181E080932F01FF91D1
:1002A200EF91BF91AF919F918F917F916F915F91EC
:1002B2004F913F912F910F900FBE0F901F90189565
:1002C2001F920F920FB60F9211242F933F934F93C9
:1002D2005F936F937F938F939F93AF93BF93EF93AC
:1002E200FF9380913101909132019C012F5F3F4F2A
:1002F20030933201209331010B97E0F040E064E14A
:1003020070E08CE191E00E94AC0140E064E170E0B9
:100312008EE091E00E94AC0141E064E170E080E097
:1003220091E00E94AC0181E0809330011092320191
:1003320010923101FF91EF91BF91AF919F918F91F7
:100342007F916F915F914F913F912F910F900FBECF
:060352000F901F901895AA
:10035800FC0187818823B9F0828193819C012F5FFA
:100368003F4F3383228368177907D8F5178281E0D6
:100378008683A485B5859C918385809589238C93F4
:10038800138212820895411108C0A485B5859C91F5
:100398008385809589238C93089585818823C1F06E
:1003A800828193819C012F5F3F4F338322839B017E
:1003B800220F331F620F731F6817790790F4A48503
:1003C800B5859C91838589278C9313821282089521
:1003D800A485B5859C918385809589238C93138208
:0403E80012820895E0
:1003EC00F89492E094BD83E085BD89EF87BDEEE67D
:1003FC00F0E08081826080839093B0008DED8093DB
:10040C00B300E0E7F0E08081826080831092B1005D
:10041C0082EA80938000E1E8F0E088E180838BEB56
:10042C0091E0909387008093860085E890E090930C
:10043C0089008093880090938B0080938A0084B10C
:10044C00866084B98081887F8083789487B18F613E
:0C045C0087B984B1867E84B91AB808956F
:10046800FC01A185B2859C918085892351F5808105
:1004780091818B3091051CF4019691838083808152
:1004880091810A9744F18481882349F081E0878328
:10049800A485B5859C918385892B8C9314826623CA
:1004A800D1F080913301909134019C012F5F3F4F2F
:1004B8003093340120933301C39768F081E085833A
:1004C80008951182108281E08483662321F01092BE
:0804D800340110923301089574
:1004E0001092850010928400E0E8F0E08081806A3C
:0E04F0008083E1E8F0E08081816080830895E0
:1004FE00E0E8F0E080818F758083E1E8F0E08081B4
:0C050E008E7F808385B1897F85B90895B8
:10051A00EC010E94AB020E94AA02CE010E94AC0228
:06052A00CE010E94A802B0
:100530001092B200E1EBF0E0808184608083089546
:0C054000E1EBF0E080818B7F8083089568
:04054C000C9400000B
:040550000E9466009F
:02055400089508
:02055600089506
:02055800089504
:0E055A00000000000100000001230004280042
:0E056800000000000100000010230002280027
:0E057600000000000100000008230001280022
:07058400000000000001006F
:01058B001B54
:00000001FF
