:100000000C943E000C94D2010C94D2010C94D201B9
:100010000C94D2010C94D2010C94D2010C94C30024
:100020000C94D2010C94D2010C94D2010C94D20104
:100030000C94D2010C94D2010C9451010C94D20175
:100040000C94D2010C94D2010C94D2010C94D201E4
:100050000C94D2010C94D2010C94D2010C94D201D4
:100060000C94D2010C94D201010001250003B201CD
:1000700025012780012701280003D70011241FBE76
:10008000CFEFD8E0DEBFCDBFE8E6F0E040E017C03C
:10009000B591A59135912591059107FD0CC09591DC
:1000A0008591EF01F92FE82F05900D92A217B30764
:1000B000D9F7FE0104C01D92A217B307E1F7EB3791
:1000C000F40731F70E9468000C94B901F894FFCF4F
:1000D0000E94130180912401882371F084E191E052
:1000E0000E9477018AE091E00E94770180E091E030
:1000F0000E9477011092240180911701811104C0A0
:1001000090910D01992399F190912301992379F10F
:10011000882329F089B18F708093210105C089B1AE
:1001200082958F7080932101CEE1D1E03C81832FB5
:100130008170182F110F110F110F00E0A8015063EB
:100140009A819F7120E4929FC0011124842B952BEA
:100150002B812F73822B9983888381E083278C8363
:100160000E94C4011D821092170110920D0180910E
:100170000301882309F4AECF89B18F7080932001E9
:0601800010920301A7CF5D
:100186001F920F920FB60F9211242F933F934F9306
:100196005F936F937F938F939F93AF93BF93EF93E9
:1001A600FF9390912701992304F120911E0130912C
:1001B6001F01892F859502C0369527958A95E2F706
:1001C60081E020FF80E0492F417050E090E0481721
:1001D600590719F00E949C0102C00E94AB01809150
:1001E60027018150809327010AC00E94AB010E941B
:1001F600CC018BE18093270181E080932301FF915D
:10020600EF91BF91AF919F918F917F916F915F9188
:100216004F913F912F910F900FBE0F901F90189501
:10022600F89492E094BD83E085BD89EF87BDEEE644
:10023600F0E08081826080839093B0008DED8093A2
:10024600B300E0E7F0E08081826080831092B10025
:1002560082EA80938000E1E8F0E088E180838BEB1E
:1002660091E0909387008093860085E890E09093D4
:1002760089008093880090938B0080938A0084B1D4
:10028600866084B98081887F8083789487B18F6106
:0C02960087B984B1867E84B91AB8089537
:1002A2001F920F920FB60F9211242F933F938F93A9
:1002B2009F9380912501909126019C012F5F3F4FD2
:1002C20030932601209325010B9738F081E080932B
:1002D200240110922601109225019F918F913F9146
:0C02E2002F910F900FBE0F901F901895E9
:1002EE00FC01A581B6819C9184818923C9F480810A
:1002FE0091818B3091051CF40196918380838081CE
:10030E0091810A978CF08281882371F081E083833A
:10031E00A085B1859C91878189278C93128208953F
:0A032E001182108281E0828308959D
:100338001092850010928400E0E8F0E08081806AE5
:0E0348008083E1E8F0E0808181608083089589
:10035600E0E8F0E080818F758083E1E8F0E080815D
:0C0366008E7F808385B1897F85B9089562
:10037200EC010E94D7010E94D601CE010E94D80151
:06038200CE010E94D4012F
:100388001092B200E1EBF0E08081846080830895F0
:0C039800E1EBF0E080818B7F8083089512
:0403A4000C940000B5
:0403A8000E94660049
:0203AC000895B2
:0203AE000895B0
:0203B0000895AE
:0A03B20000000100012300042800F0
:0A03BC0000000100102300022800D9
:0A03C60000000100082300012800D8
:0703D0000000000000010025
:0103D7001B0A
:00000001FF
