:100000000C943E000C940F020C940F020C940F02FF
:100010000C940F020C940F020C940F020C94C3006A
:100020000C940F020C940F020C940F020C940F020C
:100030000C940F020C940F020C9413010C940F02F9
:100040000C940F020C940F020C940F020C940F02EC
:100050000C940F020C940F020C940F020C940F02DC
:100060000C940F020C940F020100012E00042C01CD
:100070002E0130800130013100045A0011241FBECE
:10008000CFEFD8E0DEBFCDBFE8E6F0E040E017C03C
:10009000B591A59135912591059107FD0CC09591DC
:1000A0008591EF01F92FE82F05900D92A217B30764
:1000B000D9F7FE0104C01D92A217B307E1F7EB3791
:1000C000F40731F70E9468000C94F601F894FFCF12
:1000D0000E945B0180912D01882371F08AE191E0FB
:1000E0000E9499018DE091E00E94990180E091E0E9
:1000F0000E94990110922D0180911F01811104C06D
:1001000090911201992399F190912C01992379F101
:10011000882329F089B18F7080932A0105C089B1A5
:1001200082958F7080932A01C7E2D1E03C81832FB2
:100130008170182F110F110F110F00E0A8015063EB
:100140009A819F7120E4929FC0011124842B952BEA
:100150002B812F73822B9983888381E083278C8363
:100160000E9401021D8210921F01109212018091C3
:100170000501882309F4AECF89B18F7080932901DE
:0601800010920501A7CF5B
:100186001F920F920FB60F9211242F933F934F9306
:100196005F936F937F938F939F93AF93BF93EF93E9
:1001A600FF9390913001992304F12091270130911A
:1001B6002801892F859502C0369527958A95E2F7FD
:1001C60081E020FF80E0492F417050E090E0481721
:1001D600590719F00E94D90102C00E94E8018091D6
:1001E60030018150809330010AC00E94E8010E94CC
:1001F60009028BE18093300181E080932C01FF910D
:10020600EF91BF91AF919F918F917F916F915F9188
:100216004F913F912F910F900FBE0F901F90189501
:100226001F920F920FB60F9211242F933F934F9365
:100236005F936F937F938F939F93AF93BF93EF9348
:10024600FF9380912E0190912F019C012F5F3F4FCC
:1002560030932F0120932E010B97C8F064E170E0D4
:100266008AE191E00E94BE0164E170E08DE091E0D8
:100276000E94BE0164E170E080E091E00E94BE0150
:1002860081E080932D0110922F0110922E01FF9193
:10029600EF91BF91AF919F918F917F916F915F91F8
:1002A6004F913F912F910F900FBE0F901F90189571
:1002B600F89492E094BD83E085BD89EF87BDEEE6B4
:1002C600F0E08081826080839093B0008DED809312
:1002D600B300E0E7F0E08081826080831092B10095
:1002E60082EA80938000E1E8F0E088E180838BEB8E
:1002F60091E0909387008093860085E890E0909344
:1003060089008093880090938B0080938A0084B143
:10031600866084B98081887F8083789487B18F6175
:0C03260087B984B1867E84B91AB80895A6
:10033200FC01A085B1859C9187818923C9F48081C4
:1003420091818B3091051CF4019691838083808189
:1003520091810A978CF08481882371F081E08683F1
:10036200A385B4859C918285892B8C9314820895F0
:0A0372001182108281E08483089557
:10037C00FC0186818823B1F0828193819C012F5FDF
:10038C003F4F338322836817790760F4168281E02C
:10039C008583A385B4859C918285809589238C93D4
:0603AC0013821282089585
:1003B2001092850010928400E0E8F0E08081806A6B
:0E03C2008083E1E8F0E080818160808308950F
:1003D000E0E8F0E080818F758083E1E8F0E08081E3
:0C03E0008E7F808385B1897F85B90895E8
:1003EC00EC010E9414020E941302CE010E9415021D
:0603FC00CE010E94110277
:100402001092B200E1EBF0E0808184608083089575
:0C041200E1EBF0E080818B7F8083089597
:04041E000C9400003A
:040422000E946600CE
:02042600089537
:02042800089535
:02042A00089533
:0D042C000000000001000001230004280072
:0D0439000000000001000010230002280058
:0D0446000000000001000008230001280054
:0704530000000000000100A1
:01045A001B86
:00000001FF
