:100000000C9434000C9449000C9449000C94490061
:100010000C9449000C9449000C9449000C9449003C
:100020000C9449000C9449000C9449000C9449002C
:100030000C9449000C9449000C9449000C9449001C
:100040000C9449000C9449000C946C000C944900E9
:100050000C9449000C9449000C9449000C944900FC
:100060000C9449000C94490011241FBECFEFD8E036
:10007000DEBFCDBF11E0A0E0B1E0E8EEF2E002C0EB
:1000800005900D92A630B107D9F70E944B000C9451
:1000900072010C9400008FEF84B96894AA24A3F82D
:1000A000C12CE12C00E011E021E041E061E080E8BA
:1000B00095E20E947B00C0E08C2F0E9448012FEF48
:1000C00084E39CE0215080409040E1F700C00000B4
:1000D000CF5FC53089F7EFCF1F920F920FB60F9207
:1000E00011248F938091C60085B98F910F900FBE18
:1000F0000F901F901895AF92CF92EF920F931F938E
:10010000CF93DF93D62F142FC22F0A2DF8949C0182
:1001100040E050E060E271EA87E090E00E94500128
:100120008FEF820F8093C400DA01C9010197A10902
:10013000B109892F9A2FAB2FBB278093C500E1EC23
:10014000F0E0208130E1D39FC0011124D22FD82BC1
:10015000D0838081110F110F110F182B1083808114
:1001600090E8C99FE0011124C82BC08331E0E3125D
:1001700006C0E2ECF0E08081877F808308C082E0E7
:10018000E81205C0E2ECF0E0808188608083CC203A
:1001900021F091E0C91651F012C0E2ECF0E080814C
:1001A0008F77808380818F7B808311C0E2ECF0E0C9
:1001B00080818F77808380818064808308C0E2ECB7
:1001C000F0E080818F77808380818F7B8083E2EC79
:1001D000F0E080818F7D808380818F7E80830630F8
:1001E000B9F018F4053031F03DC00730F9F00830AF
:1001F00059F138C0E1ECF0E080818B7F8083E2EC44
:10020000F0E080818B7F808380818D7F808337C009
:10021000E1ECF0E080818B7F8083E2ECF0E0808194
:100220008B7F808380818260808329C0E1ECF0E055
:1002300080818B7F8083E2ECF0E08081846080832A
:1002400080818D7F80831BC0E1ECF0E080818B7F1B
:100250008083E2ECF0E08081846080838081826032
:1002600080830DC0E1ECF0E080818B7F8083E2EC45
:10027000F0E08081846080838081826080837894D4
:10028000DF91CF911F910F91EF90CF90AF90089594
:10029000E0ECF0E0908195FFFDCF8093C6000895DB
:1002A000A1E21A2EAA1BBB1BFD010DC0AA1FBB1F7A
:1002B000EE1FFF1FA217B307E407F50720F0A21BEC
:1002C000B30BE40BF50B661F771F881F991F1A9459
:1002D00069F760957095809590959B01AC01BD0183
:0802E000CF010895F894FFCF4F
:0602E8006E6F6E65000060
:00000001FF
