:100000000C9434000C945C000C9451000C9451003E
:100010000C9451000C9451000C9451000C9451001C
:100020000C9451000C9451000C9451000C947200EB
:100030000C9451000C9451000C9451000C945100FC
:100040000C9451000C9451000C9451000C945100EC
:100050000C9451000C9451000C9451000C945100DC
:100060000C9451000C94510011241FBECFEFD8E026
:10007000DEBFCDBF17E0A0E0B1E0E2EDF1E002C0ED
:1000800005900D92A030B107D9F727E0A0E0B7E0C6
:1000900001C01D92A230B207E1F70E9453000C94F8
:1000A000E7000C9400000E949F00E8E8F0E08AE07E
:1000B00090E091838083FDCF1F920F920FB60F9235
:1000C00011248F93809100078F5F843018F4809300
:1000D000000702C0109200078F910F900FBE0F9083
:1000E0001F9018951F920F920FB60F9211242F9305
:1000F0003F934F935F936F937F938F939F93AF93B0
:10010000BF93EF93FF9360910007809101070E94D6
:10011000C700809101078F5F80930107FF91EF91E6
:10012000BF91AF919F918F917F916F915F914F910F
:100130003F912F910F900FBE0F901F901895F8943C
:100140008FEF84B9529A5A9AE9E6F0E08081826092
:100150008083E89AE0E8F0E080818E7F8083808170
:100160008D7F8083E1E8F0E08081886080838081FA
:100170008B7F808380818D7F80838081816080837D
:10018000EFE6F0E08081826080837894089590E0CB
:10019000FC01E050FA4F208125B9FC01E050FB4FF3
:1001A000208125B9FC01E050FC4F208125B9FC01DC
:1001B000E050FD4F208125B9FC01E050FE4F208129
:1001C00025B9FC01E050FF4F808185B90895F8946E
:0201D000FFCF5F
:1001D200494A4B4B4A4949494948474544434343A5
:1001E200444443413E3D3B3938373736363637375C
:1001F20037373737363533323131343D4D6584A99F
:10020200CFEEFFFEEAC69A6D442511050001060DE8
:10021200141C242D34393D40414243444445464751
:100222004747474747474748484849494A4B4B4C45
:100232004D4E4F505152535456585B5D6062646646
:10024200686B6D707376797B7D7E7F7F7F7F7F7E2B
:100252007D7C797774716D6966625F5C5957545120
:100262004F4D4C4B4A49484645444343434444441A
:100272004545454545454546474849494A4A4B4B08
:100282004B4B4B4B4A4A49494949484848474747DB
:1002920047474747464646454545454546464645FE
:1002A200444443434343424242414141414141412B
:1002B2004140403F3F404041414141414141404036
:1002C2004040404040404141414243444547484903
:1002D20000020406080A0C0E10121416181A1C1E2C
:1002E20020222426282A2C2E30323436383A3C3E1C
:1002F20040424446484A4C4E50525456585A5C5E0C
:1003020060626466686A6C6E70727476787A7C7EFB
:1003120080828486888A8C8E90929496989A9C9EEB
:10032200A0A2A4A6A8AAACAEB0B2B4B6B8BABCBEDB
:10033200C0C2C4C6C8CACCCED0D2D4D6D8DADCDECB
:10034200E0E2E4E6E8EAECEEF0F2F4F6F8FAFCFEBB
:10035200FFFDFBF9F7F5F3F1EFEFEBE9E7E5E3E199
:10036200DFDDDBD9D7D5D3D1CFCFCBC9C7C5C3C189
:10037200BFBDBBB9B7B5B3B1AFAFABA9A7A5A3A179
:100382009F9D9B99979593918F8F8B898785838169
:100392007F7D7B79777573716F6F6B696765636159
:1003A2005F5D5B59575553514F4F4B494745434149
:1003B2003F3D3B39373533312F2F2B292725232139
:1003C2001F1D1B19171513110F0F0B090705030129
:1003D200FFFEFDFCFBFAF9F8F7F6F5F4F3F2F1F0A3
:1003E200EFEEEDECEBEAE9E8E7E6E5E4E3E2E1E093
:1003F200DFDEDDDCDBDAD9D8D7D6D5D4D3D2D1D083
:10040200CFCECDCCCBCAC9C8C7C6C5C4C3C2C1C072
:10041200BFBEBDBCBBBAB9B8B7B6B5B4B3B2B1B062
:10042200AFAEADACABAAA9A8A7A6A5A4A3A2A1A052
:100432009F9E9D9C9B9A9998979695949392919042
:100442008F8E8D8C8B8A8988878685848382818032
:100452007F7E7D7C7B7A7978777675747372717022
:100462006F6E6D6C6B6A6968676665646362616012
:100472005F5E5D5C5B5A5958575655545352515002
:100482004F4E4D4C4B4A49484746454443424140F2
:100492003F3E3D3C3B3A39383736353433323130E2
:1004A2002F2E2D2C2B2A29282726252423222120D2
:1004B2001F1E1D1C1B1A19181716151413121110C2
:1004C2000F0E0D0C0B0A09080706050403020100B2
:1004D200000102030405060708090A0B0C0D0E0FA2
:1004E200101112131415161718191A1B1C1D1E1F92
:1004F200202122232425262728292A2B2C2D2E2F82
:10050200303132333435363738393A3B3C3D3E3F71
:10051200404142434445464748494A4B4C4D4E4F61
:10052200505152535455565758595A5B5C5D5E5F51
:10053200606162636465666768696A6B6C6D6E6F41
:10054200707172737475767778797A7B7C7D7E7F31
:10055200808182838485868788898A8B8C8D8E8F21
:10056200909192939495969798999A9B9C9D9E9F11
:10057200A0A1A2A3A4A5A6A7A8A9AAABACADAEAF01
:10058200B0B1B2B3B4B5B6B7B8B9BABBBCBDBEBFF1
:10059200C0C1C2C3C4C5C6C7C8C9CACBCCCDCECFE1
:1005A200D0D1D2D3D4D5D6D7D8D9DADBDCDDDEDFD1
:1005B200E0E1E2E3E4E5E6E7E8E9EAEBECEDEEEFC1
:1005C200F0F1F2F3F4F5F6F7F8F9FAFBFCFDFEFFB1
:1005D2000000000000000000000000000000000019
:1005E2000000000000000000000000000000000009
:1005F20000000000000000000000000000000000F9
:1006020000000000000000000000000000000000E8
:1006120000000000000000000000000000000000D8
:1006220000000000000000000000000000000000C8
:1006320000000000000000000000000000000000B8
:1006420000000000000000000000000000000000A8
:10065200FFFFFFFFFFFFFFFFFFFFFFFFFFFFFFFFA8
:10066200FFFFFFFFFFFFFFFFFFFFFFFFFFFFFFFF98
:10067200FFFFFFFFFFFFFFFFFFFFFFFFFFFFFFFF88
:10068200FFFFFFFFFFFFFFFFFFFFFFFFFFFFFFFF78
:10069200FFFFFFFFFFFFFFFFFFFFFFFFFFFFFFFF68
:1006A200FFFFFFFFFFFFFFFFFFFFFFFFFFFFFFFF58
:1006B200FFFFFFFFFFFFFFFFFFFFFFFFFFFFFFFF48
:1006C200FFFFFFFFFFFFFFFFFFFFFFFFFFFFFFFF38
:1006D200808386898C8F9295989C9FA2A5A8ABAEA9
:1006E200B0B3B6B9BCBFC1C4C7C9CCCED1D3D5D8BB
:1006F200DADCDEE0E2E4E6E8EAECEDEFF0F2F3F574
:10070200F6F7F8F9FAFBFCFCFDFEFEFFFFFFFFFF28
:10071200FFFFFFFFFFFFFEFEFDFCFCFBFAF9F8F70F
:10072200F6F5F3F2F0EFEDECEAE8E6E4E2E0DEDC27
:10073200DAD8D5D3D1CECCC9C7C4C1BFBCB9B6B340
:10074200B0AEABA8A5A29F9C9895928F8C89868308
:10075200807C797673706D6A6763605D5A57545115
:100762004F4C494643403E3B383633312E2C2A27E4
:100772002523211F1D1B1917151312100F0D0C0A0B
:100782000908070605040303020101000000000036
:10079200000000000000010102030304050607082F
:1007A200090A0C0D0F1012131517191B1D1F2123F7
:1007B20025272A2C2E313336383B3E404346494CBE
:1007C2004F5154575A5D6063676A6D707376797CD6
:00000001FF
