S01D00004156525F536C6176655F526563656976655F4144432E737265637B
S11300000C9434000C946D000C9451000C94510029
S11300100C9451000C9451000C9451000C94510018
S11300200C9451000C9451000C9451000C94510008
S11300300C9451000C9451000C9451000C945100F8
S11300400C9451000C9451000C9451000C945100E8
S11300500C9451000C9451000C9451000C945100D8
S11300600C947E000C94510011241FBECFEFD8E0F5
S1130070DEBFCDBF11E0A0E0B1E0E2E0F2E002C0FB
S113008005900D92A230B107D9F721E0A2E0B1E0CA
S113009001C01D92A830B207E1F70E9453000C94EE
S11300A0FF000C940000F8941AB88FEF84B98BB950
S11300B0E9E6F0E0808182608083E89A89B121E0FA
S11300C040E060E083700E94D4007894E0910001E5
S11300D0F0910101808185B9F9CF1F920F920FB67B
S11300E00F9211248F9389B18370880F8093BA0083
S11300F08F910F900FBE0F901F9018951F920F9223
S11301000FB60F9211242F933F938F939F93EF93E6
S1130110FF938091B900982F907F903611F090371B
S113012031F485EC8093BC001092020132C0982F08
S1130130987E9038E1F480910201813031F410927C
S1130140020185E88093BC000DC021E030E0281B4B
S113015031091216130634F48F5F8093020185EC83
S11301608093BC008091BB008093030112C0983837
S113017041F485EC8093BC008091BB008093030123
S113018008C0887F803A29F4ECEBF0E08081806835
S11301908083FF91EF919F918F913F912F910F90C9
S11301A00FBE0F901F901895109206011092050132
S11301B010920401611116C010920701211108C0A8
S11301C0880F482B4093BA0084EC8093BC000895B8
S11301D02130A1F4880F482B4093BA0085EC80931A
S11301E0BC000895613051F481E08093070180E2FE
S11301F08093B800E9EBF0E0808180830895F8945F
S1050200FFCF2A
S10502020301F2
S9030000FC
