S01D000041746D65676138415F375365676D656E74735F78342E7372656358
S11300001CC02BC02AC029C028C027C02FC025C0AF
S113001024C044C022C021C020C01FC01EC01DC0B7
S11300201CC01BC01AC088C08CC093C09AC0A1C099
S1130030A8C0AFC0B4C0BBC0BFC011241FBECFE5B1
S1130040D4E0DEBFCDBF20E0A0E6B0E001C01D9249
S1130050A336B207E1F702D0B4C1D2CFF89456D098
S113006084E661D174D14DD07894FFCF1F920F9262
S11300700FB60F9211248F939F93369A349BFECF21
S1130080349884B195B190936100809360009F91FE
S11300908F910F900FBE0F901F9018951F920F9283
S11300A00FB60F9211242F933F934F935F936F9347
S11300B07F938F939F93AF93BF93EF93FF9360913D
S11300C062008091600090916100CAD080916200CA
S11300D08F5F843018F48093620002C01092620033
S11300E0FF91EF91BF91AF919F918F917F916F910C
S11300F05F914F913F912F910F900FBE0F901F90E2
S113010018953E9A86B1866886B9089582B312BA64
S113011088B318BA81B38C6F81BB87B38F6387BBF5
S113012012BA18BA089590E08A30910508F049C0CF
S1130130FC01ED5EFF4F099488B38F6388BB9798E9
S1130140089588B3866088BB88B3867C88BB9798FB
S1130150089588B38B6188BB88B38B7D88BB979ADD
S1130160089588B38F6088BB88B38F7C88BB979AC7
S1130170089588B3866288BB88B3867E88BB979AC5
S1130180089588B38D6288BB88B38D7E88BB979AA7
S1130190089588B38D6388BBC198979A089588B3EE
S11301A0876088BB88B3877C88BB9798089588B399
S11301B08F6388BB979A089588B38F6288BBC4986D
S11301C0979A08958230A9F028F4882341F0813069
S11301D059F00895833091F08430A9F00895969AE7
S11301E0959A949A939A08959698959A949A939A2C
S11301F00895969A9598949A939A0895969A959AAA
S11302009498939A0895969A959A949A939808959F
S1130210CF93C82F80E0D6DF8C2F85DF84E0D2DF38
S1130220CF910895CF93C82F80E0CCDF8C2F7BDF54
S113023083E0C8DFCF910895CF93C82F80E0C2DF59
S11302408C2F71DF82E0BEDFCF910895CF93C82F4A
S113025080E0B8DF8C2F67DF81E0B4DFCF910895B1
S11302600F931F93CF93DF938C01462F68EE73E0B7
S113027075D0EC019C013695279536952795ABE70B
S1130280B4E17FD0FC01F695E79524E62E9FC001EA
S11302902F9F900D1124FE01E81BF90B413069F0EA
S11302A028F04230B1F0433001F138C0C80168EEA3
S11302B073E054D0862FCADF31C09E01369527954E
S11302C036952795ABE7B4E15CD096958795B4DF76
S11302D025C09F01ADECBCEC54D0969587959695BE
S11302E08795969587959EDF19C09F01ADECBCEC70
S11302F048D09695879596958795969587959C0170
S1130300220F331F880F991F880F991F880F991F79
S1130310820F931F2E2F281B822F7ADFDF91CF911C
S11303201F910F9108959FB59C7F9FBD9EB59D60C1
S11303309EBD9EB59D7F9EBD99B7906199BF27E0F4
S1130340829FC001112401979BBD8ABD089583B784
S1130350836083BF89B7816089BF089597FB072EA7
S113036016F4009406D077FD08D017D007FC05D00A
S11303703EF4909581959F4F0895709561957F4FB8
S11303800895A29FB001B39FC001A39F01D0B29F63
S1130390700D811D1124911D0895AA1BBB1B51E1F1
S11303A007C0AA1FBB1FA617B70710F0A61BB70BE1
S11303B0881F991F5A95A9F780959095BC01CD0186
S10903C00895F894FFCF3C
S9030000FC
