:03000000020030CB
:03000300020500F3
:05000B00C28C0204009C
:0300130002055093
:03001B000204508C
:03002300020600D2
:10003000900650D2B2D2B3D2B4D2B57580007590CA
:100040000075A00075A0FF758CED758AFF758DFD9C
:10005000758921759850D28CD28E75A897D289D285
:100060008C7536307530007531007532007533008F
:100070007534007535FE753700753800C2A2C2A010
:07008000C2A1C27F020100D2
:10010000120106020100207F0122C2AFC27FAF3779
:10011000BF3005753700805FBF31057537018057E7
:10012000BF3205753702804FBF33057537038047EF
:10013000BF3405753704803FBF35057537058037F7
:10014000BF3605753706802FBF37057537078027FF
:10015000BF3805753708801FBF3905753709801707
:10016000BF0D1175330075320075310075300075A3
:1001700037008003753700AF38BF010E85323385F5
:1001800031328530318537308031BF020E853233D0
:100190008531328530318537308020BF030E85327E
:1001A00033853132853031853730800FBF040C857F
:0E01B0003233853132853031853730D2AF227F
:100400007580FF7808A936C3E793C2A03392A2D2C1
:10041000A0D8F7853580D2A1C2A2C2A0C2A17834EB
:10042000B6040B7534007535FE7536308009053419
:10043000E53523F5350536758CED758AFFD28C329E
:010450003279
:03050000C2A7325D
:03055000D2A732FD
:1006000020991B859937C2AF853799C298D27FA8A8
:1006100038B804037538000538C2B5D2AF32C29974
:0106200032A7
:100650003F065B4F666D7D077F6FC0F9A4B099922E
:0406600082F880900C
:00000001FF
