S016000041746D656761333238505F494E542E7372656388
S11300000C9434000C943E000C943E000C943E007E
S11300100C943E000C943E000C943E000C943E0064
S11300200C943E000C943E000C943E000C943E0054
S11300300C943E000C943E000C943E000C943E0044
S11300400C943E000C943E000C943E000C943E0034
S11300500C943E000C943E000C943E000C943E0024
S11300600C943E000C943E0011241FBECFEFD8E048
S1130070DEBFCDBF0E9440000C9466000C940000CB
S1130080F8948FEF84B9ECE7F0E080818166808397
S1130090EAE7F0E08081866080837894A9E7B0E0A5
S11300A08081806880838AE18A95F1F700C080812D
S11300B080648083808184FFFDCF80818F7E8083F4
S11300C080818F7780838C9185B9EACFF894FFCFB4
S9030000FC
