S01A000041746D6567613136415F4932435F554152542E737265635B
S11300000C942A000C943F000C943F000C943F0085
S11300100C943F000C943F000C943F000C943F0060
S11300200C943F000C943F000C943F000C943F0050
S11300300C943F000C943F000C943F000C943F0040
S11300400C943F000C943F000C943F000C943F0030
S11300500C943F0011241FBECFE5D4E0DEBFCDBF1A
S113006010E0A0E6B0E0E0E1F1E002C005900D92FE
S1130070AA39B107D9F70E945F000C9486000C944A
S113008000005F9BFECF8CB108955D9BFECF8CB9C1
S113009008950F931F93CF93FC018081882359F017
S11300A08F01C0E00E944500CF5FF801EC0FF11D05
S11300B080818111F7CFCF911F910F9108958AB15B
S11300C088618AB980B5866880BD89B1836389B93E
S11300D080B580BDBA9A80E690E00E9449000E94F3
S11300E04100853631F4C29A88E690E00E944900C6
S11300F0F6CF813631F4C29889E790E00E94490036
S1130100EECF88E890E00E944900E9CFF894FFCF51
S11301100A0920486F6C61000A0D204C6564206553
S11301206E63656E6469646F000A0D204C6564201B
S11301306170616761646F000A0D205465636C61CE
S10D0140206572726F6E65610000A5
S9030000FC
